:020000042000DA
:0C2AD4000102030471727374F1F2F3F458
:102AE000A11A0500EC170000C7060000E80300006B
:102AF000DF020000010000000024F400EE1EAB0025
:102B00000A000000010000000000000000000000BA
:102B100000000000000000000000000000000000B5
:102B200000000000A00E0000F0F0F0F00000000037
:102B300007000000A20300000A0A0A0A05050500B2
:102B40000F0F0F0F0F0F0F001010101311101300A5
:102B50000000A0004001E0019E02F30243030000D8
:102B60000000000000000000000000000000000065
:102B70000000000000000000000000000000000055
:102B80000000000000000000000000000000000045
:102B90000000000000000000000000000000000035
:102BA0000000000000000000000000000000000025
:102BB0000000000000000000000000000000000015
:102BC0000000000000000000000000000000000005
:102BD00000000000000000000000000000000000F5
:102BE00000000000000000000000000000000000E5
:102BF00000000000000000000000000000000000D5
:102C000000000000000000000000000000000000C4
:102C100000000000000000000000000000000000B4
:102C200000000000000000000000000000000000A4
:102C30000000000000000000000000000000000094
:102C40000000000000000000000000000000000084
:102C50000000000000000000000000000000000074
:102C60000000000000000000000000000000000064
:102C70000000000000000000000000000000000054
:102C80000000000000000000000000000000000044
:102C90000000000000000000000000000000000034
:102CA0000000000000000000000000000000000024
:102CB0000000000000000000000000000000000014
:102CC0000000000000000000000000000000000004
:102CD00000000000000000000000000000000000F4
:102CE00000000000000000000000000000000000E4
:102CF00000000000000000000000000000000000D4
:102D000000000000000000000000000000000000C3
:102D100000000000000000000000000000000000B3
:102D200000000000000000000000000000000000A3
:102D30000000000000000000000000000000000093
:102D4000287374617274757029000000000000011E
:102D500000000064656661756C745461736B0000FB
:102D60000000000300006D795461736B3032000085
:102D70000000000000000000006D795461736B30AA
:102D80003300000000000000000000006D79546175
:102D9000736B303400000000000000000000006D84
:102DA000795461736B3035000000000000000000B2
:102DB000000049444C4500000000000000000000F5
:102DC0000001000000000000000000000000000002
:102DD00000000000000000000000000000000000F3
:102DE00000000000000000000000000000000000E3
:102DF00000000000000000000000000000000000D3
:102E000000000000000000000000000000000000C2
:102E100000000000000000000000000000000000B2
:102E200000000000000000000000000000000000A2
:102E30000000000000000000000000000000000092
:102E40000000000000000000000000000000000082
:102E50000000000000000000000000000000000072
:102E60000000000000000000000000000000000062
:102E70000000000000000000000000000000000052
:102E80000000000000000000000000000000000042
:102E90000000000000000000000000000000000032
:102EA0000000000000000000000000000000000022
:102EB0000000000000000000000000000000000012
:102EC0000000000000000000000000000000000002
:102ED00000000000000000000000000000000000F2
:102EE00000000000000000000000000000000000E2
:102EF00000000000000000000000000000000000D2
:102F000000000000F1F1F1F12003000001000000D9
:102F100000000000000000000000000000000000B1
:102F200000000000000000000000000000000000A1
:102F30000000000000000000000000000000000091
:102F40000000000000000000000000000000000081
:1032B0000000000000000000F2F2F2F254726163BC
:1032C00065205265636F726465722044656D6F009E
:1032D00000000000000000000000000000000000EE
:1032E00000000000000000000000000000000000DE
:1032F00000000000000000000000000000000000CE
:10330000000000000000000000000000F3F3F3F3F1
:103310000707DB3D0706CE00A80033008976F401DD
:1033200007075101A900140002024DC90203A400BD
:1033300002047D0002057D0006029F0089B564003D
:1033400006031F0189B564000604200189B46400E6
:103350000605240189B6640007072501A9001800A5
:10336000020266600203A40002047D0002057D00E3
:1033700006029F0089B7640006031D0189B6640038
:1033800006041F0189B464000605250189B564009F
:1033900007072501A9001800020267600203A400C4
:1033A00002047D0002057D0006029F0089B76400CB
:1033B00006031D0189B564000604200189B6640076
:1033C0000605220189B6640007072501A900180037
:1033D000020267600203A40002047D0002057D0072
:1033E0000602A00089B6640006031D0189B56400C9
:1033F0000604200189B464000605230189B5640030
:1034000007072501A9001800020269600203A20053
:1034100002047D0002057D0006029F0089B564005C
:103420000603210189B564000604230189B4640000
:103430000605250189B5640007072801A9000300D6
:10344000020662610606C4000707DA3D0706CA00E5
:10345000A80033008975F40107074F01A900140083
:103460000202D38A0203A20002047D0002057D004D
:1034700006029F0089B5640006031E0189B5640039
:103480000604200189B464000605220189B56400A0
:1034900007072601A900180002026C600203A200BF
:1034A00002047D0002057D0006029F0089B56400CC
:1034B00006031E0189B564000604200189B4640076
:1034C0000605220189B5640007072601A900180036
:1034D00002026C600203A20002047D0002057D006E
:1034E00006029F0089B5640006031E0189B56400C9
:1034F0000604200189B464000605220189B5640030
:1035000007072601A900180002026C600203A2004E
:1035100002047D0002057D0006029F0089B564005B
:1035200006031E0189B564000604200189B4640005
:103530000605220189B5640007072601A9001800C5
:1035400002026C600203A40002047D0002057D00FB
:1035500006029F0089B564000603210189B5640055
:103560000604230189B464000605250189B56400B9
:1035700007072801A90003000206DF9F0606C40012
:103580000707DB3D0706C600A8003300896CF4017D
:1035900007074F01A90014000202604C0203A200B9
:1035A00002047D0002057D0006029F0089B56400CB
:1035B00006031E0189B564000604200189B4640075
:1035C0000605220189B5640007072601A900180035
:1035D00002026C600203A20002047D0002057D006D
:1035E00006029F0089B5640006031E0189B56400C8
:1035F0000604200189B464000605220189B564002F
:1036000007072601A900180002026C600203A2004D
:1036100002047D0002057D0006029F0089B564005A
:1036200006031E0189B564000604200189B4640004
:103630000605220189B5640007072601A9001800C4
:1036400002026C600203A20002047D0002057D00FC
:1036500006029F0089B5640006031E0189B5640057
:103660000604200189B464000605220189B56400BE
:1036700007072601A900180002026C600203A200DD
:1036800002047D0002057D0006029F0089B56400EA
:103690000603210189B564000604230189B464008E
:1036A0000605250189B5640007072801A900030064
:1036B000020662DE0606C4000707DA3D0706CA00F6
:1036C000A80033008962F40107074F01A900140024
:1036D0000202E60D0203A20002047D0002057D0045
:1036E00006029F0089B5640006031E0189B56400C7
:1036F0000604200189B464000605220189B564002E
:1037000007072601A900180002026C600203A2004C
:1037100002047D0002057D0006029F0089B5640059
:1037200006031E0189B564000604200189B4640003
:103730000605220189B6640007072501A9001800C3
:1037400002026C600203A20002047D0002057D00FB
:1037500006029F0089B5640006031E0189B5640056
:103760000604200189B464000605220189B56400BD
:1037700007072601A900180002026C600203A200DC
:1037800002047D0002057D0006029F0089B56400E9
:1037900006031E0189B564000604200189B4640093
:1037A0000605220189B5640007072601A900180053
:1037B00002026C600203A40002047D0002057D0089
:1037C00006029F0089B564000603210189B56400E3
:1037D0000604230189B464000605250189B5640047
:1037E00007072801A90004000206E01C0606C40021
:1037F0000707DA3D0706CA00A80033008959F4011B
:1038000007074F01A9001300020270CF0203A200B4
:1038100002047D0002057D0006029F0089B5640058
:1038200006031E0189B564000604200189B4640002
:103830000605220189B5640007072601A9001800C2
:1038400002026C600203A20002047D0002057D00FA
:1038500006029F0089B5640006031E0189B5640055
:103860000604200189B464000605220189B56400BC
:1038700007072601A900180002026C600203A200DB
:1038800002047D0002057D0006029F0089B56400E8
:1038900006031E0189B564000604200189B4640092
:1038A0000605220189B5640007072601A900180052
:1038B00002026C600203A20002047D0002057D008A
:1038C00006029F0089B5640006031E0189B56400E5
:1038D0000604200189B464000605220189B564004C
:1038E00007072601A900180002026C600203A2006B
:1038F00002047D0002057D0006029F0089B5640078
:103900000603210189B564000604230189B464001B
:103910000605250189B5640007072801A9000400F0
:103920000206605B0606C4000707DB3D0706C80009
:10393000A800330089DDF40107074F01A900130037
:1039400002026D900203A20002047D0002057D00C8
:1039500006029F0089B5640006031E0189B5640054
:103960000604200189B464000605220189B56400BB
:1039700007072601A900180002026C600203A200DA
:1039800002047D0002057D0006029F0089B56400E7
:1039900006031E0189B564000604200189B4640091
:1039A0000605220189B6640007072501A900180051
:1039B00002026C600203A20002047D0002057D0089
:1039C00006029F0089B5640006031E0189B56400E4
:1039D0000604200189B464000605220189B564004B
:1039E00007072601A900180002026C600203A2006A
:1039F00002047D0002057D0006029F0089B5640077
:103A000006031E0189B564000604200189B4640020
:103A10000605220189B5640007072601A9001800E0
:103A200002026C600203A40002047D0002057D0016
:103A300006029F0089B564000603210189B5640070
:103A40000604230189B464000605250189B56400D4
:103A500007072801A90004000206DF990606C40032
:103A60000707DB3D0706C600A800330089D5F4012F
:103A700007074F01A90013000202F7510203A20039
:103A800002047D0002057D0006029F0089B56400E6
:103A900006031E0189B564000604200189B4640090
:103AA0000605220189B6640007072501A900180050
:103AB00002026C600203A20002047D0002057D0088
:103AC00006029F0089B5640006031E0189B56400E3
:103AD0000604200189B464000605220189B564004A
:103AE00007072601A900180002026C600203A20069
:103AF00002047D0002057D0006029F0089B5640076
:103B000006031E0189B564000604200189B464001F
:103B10000605220189B5640007072601A9001800DF
:103B200002026C600203A20002047D0002057D0017
:103B300006029F0089B5640006031E0189B5640072
:103B40000604200189B464000605220189B56400D9
:103B500007072601A900180002026C600203A200F8
:103B600002047D0002057D0006029F0089B5640005
:103B70000603210189B564000604230189B46400A9
:103B80000605250189B5640007072801A90004007E
:103B9000020662D80606C4000707DA3D0706CA0017
:103BA000A800330089CCF40107074F01A9001300D6
:103BB00002027C130203A20002047D0002057D00C4
:103BC00006029F0089B5640006031E0189B56400E2
:103BD0000604200189B464000605220189B5640049
:103BE00007072601A900180002026C600203A20068
:103BF00002047D0002057D0006029F0089B5640075
:103C000006031E0189B564000604200189B464001E
:103C10000605220189B6640007072501A9001800DE
:103C200002026C600203A20002047D0002057D0016
:103C300006029F0089B5640006031E0189B5640071
:103C40000604200189B464000605220189B56400D8
:103C500007072601A900180002026C600203A200F7
:103C600002047D0002057D0006029F0089B5640004
:103C700006031E0189B564000604200189B46400AE
:103C80000605220189B5640007072601A90018006E
:103C900002026C600203A40002047D0002057D00A4
:103CA00006029F0089B564000603210189B56400FE
:103CB0000604230189B464000605250189B5640062
:103CC00007072801A90005000206E0160606C40041
:103CD0000707DA3D0706CA00A800330089C2F401CD
:103CE00007074F01A9001200020206D50203A20035
:103CF00002047D0002057D0006029F0089B5640074
:103D000006031E0189B564000604200189B464001D
:103D10000605220189B6640007072501A9001800DD
:103D200002026C600203A20002047D0002057D0015
:103D300006029F0089B5640006031E0189B5640070
:103D40000604200189B464000605220189B56400D7
:103D500007072601A900180002026C600203A200F6
:103D600002047D0002057D0006029F0089B5640003
:103D700006031E0189B564000604200189B46400AD
:103D80000605220189B5640007072601A90018006D
:103D900002026C600203A20002047D0002057D00A5
:103DA00006029F0089B5640006031E0189B5640000
:103DB0000604200189B464000605220189B5640067
:103DC00007072601A900180002026C600203A20086
:103DD00002047D0002057D0006029F0089B5640093
:103DE0000603210189B564000604230189B4640037
:103DF0000605250189B5640007072801A90005000B
:103E0000020661550606C4000707DB3D0706C6002B
:103E1000A800330089B9F40107074F01A900120077
:103E2000020293960203A20002047D0002057D00B7
:103E300006029F0089B5640006031E0189B564006F
:103E40000604200189B464000605220189B66400D5
:103E500007072501A900180002026C600203A200F6
:103E600002047D0002057D0006029F0089B5640002
:103E700006031E0189B564000604200189B46400AC
:103E80000605220189B5640007072601A90018006C
:103E900002026C600203A20002047D0002057D00A4
:103EA00006029F0089B5640006031E0189B56400FF
:103EB0000604200189B464000605220189B6640065
:103EC00007072501A900180002026D600203A20085
:103ED00002047D0002057D0006029F0089B6640091
:103EE0000603200189B664000604220189B4640037
:103EF0000605250189B6640007072801A90002000C
:103F000002065F670606C4000707DB3D0706C80018
:103F1000A800330089CBF40107074F01A900150061
:103F200002027F840203A20002047D0002057D00DC
:103F300006029F0089B5640006031E0189B564006E
:103F40000604200189B464000605220189B66400D4
:103F500007072501A900180002026C600203A200F5
:103F600002047D0002057D0006029F0089B5640001
:103F700006031E0189B564000604200189B46400AB
:103F80000605220189B6640007072501A90018006B
:103F900002026D600203A20002047D0002057D00A2
:103FA00006029F0089B6640006031D0189B56400FE
:103FB0000604200189B464000605230189B5640064
:103FC00007072501A900180002026B600203A20086
:103FD00002047D0002057D0006029F0089B5640091
:103FE00006031E0189B564000604200189B464003B
:103FF0000605220189B6640007072501A9001800FB
:1040000002026C600203A40002047D0002057D0030
:1040100006029F0089B664000603200189B6640089
:104020000604220189B464000605250189B66400EE
:1040300007072801A90002000206DEA50606C40043
:104040000707DB3D0706CE00A800330089B7F4015F
:1040500007074F01A900150002020D460203A20046
:1040600002047D0002057D0006029F0089B5640000
:1040700006031E0189B564000604200189B46400AA
:104080000605220189B6640007072501A90018006A
:1040900002026C600203A20002047D0002057D00A2
:1040A00006029F0089B5640006031E0189B56400FD
:1040B0000604200189B464000605220189B5640064
:1040C00007072601A900180002026C600203A20083
:1040D00002047D0002057D0006029F0089B5640090
:1040E00006031E0189B564000604200189B464003A
:1040F0000605220189B5640007072601A9001800FA
:1041000002026C600203A20002047D0002057D0031
:1041100006029F0089B5640006031E0189B564008C
:104120000604200189B464000605220189B56400F3
:1041300007072601A900180002026C600203A20012
:1041400002047D0002057D0006029F0089B564001F
:104150000603210189B564000604230189B46400C3
:104160000605250189B5640007072801A90002009A
:10417000020662E40606C4000707DA3D0706CA0025
:10418000A8003300898AF40107074F01A900150030
:104190000202BF070203A20002047D0002057D00A7
:1041A00006029F0089B5640006031E0189B56400FC
:1041B0000604200189B464000605220189B5640063
:1041C00007072601A900180002026C600203A20082
:1041D00002047D0002057D0006029F0089B564008F
:1041E00006031E0189B564000604200189B4640039
:1041F0000605220189B5640007072601A9001800F9
:1042000002026C600203A20002047D0002057D0030
:1042100006029F0089B5640006031E0189B564008B
:104220000604200189B464000605220189B56400F2
:1042300007072601A900180002026C600203A20011
:1042400002047D0002057D0006029F0089B564001E
:1042500006031E0189B564000604200189B46400C8
:104260000605220189B5640007072601A900180088
:1042700002026C600203A40002047D0002057D00BE
:1042800006029F0089B564000603210189B5640018
:104290000604230189B464000605250189B564007C
:1042A00007072801A90003000206DE220606C40053
:1042B000000000000A0B0C0D71727374F1F2F3F43C
:0142C00000FD
:00000001FF
